:1000000000400020C1000000C5080000C708000033
:1000100000000000000000000000000000000000E0
:10002000000000000000000000000000C9080000FF
:100030000000000000000000CB080000CD08000018
:10004000CF080000CF080000CF080000CF08000054
:10005000CF08000000000000CF080000CF0800001B
:10006000CF08000009050000CF080000CF080000FD
:10007000CF080000CF080000CF080000CF08000024
:10008000CF080000CF080000CF080000CF08000014
:10009000CF080000CF080000CF080000CF08000004
:1000A000CF080000CF0800000000000000000000A2
:1000B0000000000000000000000000000000000040
:1000C000044802680F210A4302600348804703483E
:1000D00000470000240500407908000031010000BD
:1000E000F8B5114C1149013C19E00B1F1F680D6850
:1000F0004E68AF4207D0281C01E00CCF0CC0431B58
:10010000B342FAD100E0B8198A68031C02E0002566
:10011000002660C31D1A9542F9D1013C1431661CBA
:10012000E3D100F0D5FBC046010000007C090000CF
:1001300001498D460149084700400020E1000000C8
:1001400008B5064B064803331B1A062B00D808BD1A
:10015000044B002BFBD09847F9E7C0461000002065
:10016000100000200000000008B50748074B1B1ACC
:100170009B10DA0FD318591000D108BD044A002A89
:10018000FBD09047F9E7C046100000201000002087
:100190000000000010B5074C2378002B09D1FFF7B1
:1001A000CFFF054B002B02D0044800E000BF012325
:1001B000237010BD1000002000000000480900005E
:1001C00008B5094B002B03D00848094900E000BFDF
:1001D00008480368002B03D0074B002B00D098473A
:1001E000FFF7C2FF08BDC04600000000480900003C
:1001F00014000020000000200000000080B582B044
:1002000000AF021CFB1D1A70064BFA1D1278111C60
:100210001F220A400121081C9040021C1A60BD46A2
:1002200002B080BD00E100E080B582B000AF021CEA
:10023000FB1D1A70084AFB1D1B78191C1F230B405D
:100240000121081C9840031C191CC0235B00D150DD
:10025000BD4602B080BDC04600E100E020DF70472F
:10026000181CC04621DF7047181CC04622DF7047AB
:10027000181CC04623DF7047181CC04624DF704797
:10028000181CC04625DF7047181CC04626DF704783
:10029000181CC04627DF7047181CC04628DF70476F
:1002A000181CC04629DF7047181CC0462ADF70475B
:1002B000181CC0462BDF7047181CC0462CDF704747
:1002C000181CC0462DDF7047181CC0462EDF704733
:1002D000181CC0462FDF7047181CC04632DF70471D
:1002E000181CC04633DF7047181CC04630DF70470B
:1002F000181CC04631DF7047181CC04634DF7047F9
:10030000181CC04635DF7047181CC04636DF7047E2
:10031000181CC04637DF7047181CC04638DF7047CE
:10032000181CC04639DF7047181CC0463ADF7047BA
:10033000181CC0463BDF7047181CC0463CDF7047A6
:10034000181CC0463EDF7047181CC0463FDF704790
:10035000181CC04640DF7047181CC0463DDF704780
:10036000181CC04641DF7047181CC04642DF70476A
:10037000181CC04643DF7047181CC04644DF704756
:10038000181CC04645DF7047181CC04646DF704742
:10039000181CC04647DF7047181CC04648DF70472E
:1003A000181CC04649DF7047181CC0464ADF70471A
:1003B000181CC0464BDF7047181CC04680B582B081
:1003C00000AF7860A023DB057A68C132FF3292006B
:1003D0000121D150BD4602B080BDC04680B582B07B
:1003E00000AF7860A023DA057B6801219940A12342
:1003F000DB00D150BD4602B080BDC04680B582B0A2
:1004000000AF7860A023DA057B6801219940024B98
:10041000D150BD4602B080BD0C05000090B583B040
:1004200000AF7860A023DA05A023D905064BC95890
:100430007B680120041C9C40231C5940024BD15076
:10044000BD4603B090BDC0460405000080B582B033
:1004500000AF786039603B68002B04D17B68181CC2
:10046000FFF7CCFF03E07B68181CFFF7B7FFBD4622
:1004700002B080BD80B500AF8023DA0580235B0029
:100480000021D1508023DB0501221A60C046802361
:10049000DA0580235B00D358002BF8D0184B0122DB
:1004A0005A60174A174B0021D150154AA223DB008E
:1004B0000021D150124AA123DB000221D150104B60
:1004C0000122DA600E4AA823DB001921D1500C4A20
:1004D00080239B000121D150094AC2239B000121A6
:1004E0004942D150064AC1239B0080214902D15084
:1004F0000920FFF799FE0920FFF780FEBD4680BD69
:10050000009000400405000080B500AF124AA0230F
:100510005B00D358012B04D10F4AA0235B000021BC
:10052000D1500B20FFF77AFF0C4B1B780133DAB266
:100530000A4B1A70094B1A78094B1B789A4208D358
:10054000054B01225A60044B0122DA60034B002262
:100550001A70BD4680BDC046009000402C000020AF
:100560000800002080B500AF034B00221A70034B37
:1005700001221A60BD4680BD2C0000200090004082
:1005800080B500AF0920FFF739FE62B60020FFF703
:1005900015FF00200121FFF759FF0B20FFF70EFF89
:1005A000FFF768FFFFF7DEFF00E0C0460B4B1B784C
:1005B000002BFAD1FFF7D6FF094B1B780133DAB2D3
:1005C000074B1A70064B1B78002BEED00020FFF76C
:1005D00025FF034B00221A70E7E7C0462C000020DD
:1005E0002D00002080B582B000AF78600EE0C046DC
:1005F000C046C046C046C046C046C046C046C046CB
:10060000C046C046C046C046C046C0467B681A1CAD
:10061000511E8A41D2B2013B7B60002AE7D1BD4620
:1006200002B080BD80B582B000AF7860A023DB054A
:100630007A68C132FF3292000121D150BD4602B02A
:1006400080BDC04680B582B000AF78600A1CFB1C3C
:100650001A70A023DB05FA1C12789200111C7A682C
:10066000C132FF329200D150BD4602B080BDC046BB
:1006700080B500AFC046094A84235B00D358012BE4
:10068000F9D1064A84235B000021D150034AA323F9
:10069000DB00D358DBB2181CBD4680BD00200040F3
:1006A00080B584B000AF786039603B1C0F33012205
:1006B0001A7013E07B68DB43DB0FDBB27A68013A28
:1006C0007A60002B05D0FA239B00181CFFF78AFFE5
:1006D00004E03B1C0F3300221A7005E00D4A84230E
:1006E0005B00D358012BE5D17B68002B0BDB094A5B
:1006F00084235B000021D150064AA323DB00D3589A
:10070000DAB23B681A703B1C0F331B78181CBD46CD
:1007100004B080BD0020004080B582B000AF021C54
:10072000FB1D1A70094AFB1D1978094BD150C046B0
:10073000064A8E235B00D358012BF9D1034A8E233E
:100740005B000021D150BD4602B080BD00200040BA
:100750001C05000080B584B000AF78600023FB600A
:100760007A68FB68D2183B1C0B3312781A70FB684E
:100770000133FB600FE03B1C0B331B78181CFFF7A9
:10078000CBFF7A68FB68D2183B1C0B3312781A70C7
:10079000FB680133FB603B1C0B331B78002BEAD159
:1007A000BD4604B080BDC04690B583B000AF041C08
:1007B000081C111C1A1CFB1D1C70BB1D18707B1D16
:1007C00019703B1D1A70BB1D1B78181CFFF72AFF00
:1007D0003B1D1B78181C0021FFF734FF204ABB1D6E
:1007E0001978204BD1501E4A3B1D19781E4BD15011
:1007F0003B1C18331B78002B1AD0FB1D1B78181CD0
:10080000FFF710FF7B1D1B78181C0021FFF71AFF54
:10081000134A7B1D1978A223DB00D150104AFB1D1F
:100820001978A123DB00D1500D4A104B0121D15082
:100830000B4A0F4B0F49D150094AA023DB0004217A
:10084000D150074B01229A60054B01221A60044ADD
:1008500084235B000021D150BD4603B090BDC0464B
:10086000002000400C050000140500006C0500008D
:100870002405000000509D0080B500AF074B1B68A9
:100880001A090F231340012B06D1054B054A1A60A4
:10089000054B802212021A60BD4680BDE80F00F0B1
:1008A00004050040DFFF07C0186C004080B500AFB2
:1008B000024B034A1A60BD4680BDC0460C000020B2
:1008C0000024F400FEE7FEE7FEE7FEE7FEE7FEE7B2
:1008D00008B500F017F80848002800D0006807495C
:1008E000002900D009680022FFF74AFE044B002BC4
:1008F00001D000E000BFFEE70000000000000000A3
:100900000000000070B50C4D0C4E0024761BB61094
:1009100004D008CD01349847A642FAD100F01AF865
:10092000074D084E0024761BB61004D008CD0134C4
:100930009847A642FAD170BD600900006009000026
:080940006009000064090000D9
:0409480000000000AB
:08094C0074F7FF7F01000000B9
:10095400F8B5C046F8BC08BC9E467047C10100000B
:10096400F8B5C046F8BC08BC9E4670479501000027
:1009740000000000880900000000002010000000B2
:04098400200000004F
:100988000000000000000000500000000024F400F7
:04000003000000C138
:00000001FF
