:1000000000400020C1000000912A0000932A000057
:1000100000000000000000000000000000000000E0
:10002000000000000000000000000000952A000011
:100030000000000000000000972A0000992A00003C
:100040009B2A00009B2A0000B11A00009B2A000096
:100050009B2A000000000000A10200009B2A000073
:100060009B2A0000C92500009B2A00009B2A000053
:100070009B2A00009B2A00009B2A00009B2A00006C
:100080009B2A00001D1400009B2A00009B2A0000F0
:10009000691400009B2A00009B2A00009B2A000094
:1000A0009B2A00009B2A00000000000000000000C6
:1000B0000000000000000000000000000000000040
:1000C000044802680F210A4302600348804703483E
:1000D0000047000024050040452A000031010000CF
:1000E000F8B5114C1149013C19E00B1F1F680D6850
:1000F0004E68AF4207D0281C01E00CCF0CC0431B58
:10010000B342FAD100E0B8198A68031C02E0002566
:10011000002660C31D1A9542F9D1013C1431661CBA
:10012000E3D109F0EDFDC04601000000BCA30000D2
:1001300001498D460149084700400020E1000000C8
:1001400008B5064B064803331B1A062B00D808BD1A
:10015000044B002BFBD09847F9E7C046D808002095
:10016000D80800200000000008B50748074B1B1AFC
:100170009B10DA0FD318591000D108BD044A002A89
:10018000FBD09047F9E7C046D8080020D8080020E7
:100190000000000010B5074C2378002B09D1FFF7B1
:1001A000CFFF054B002B02D0044800E000BF012325
:1001B000237010BDD808002000000000C09D000082
:1001C00008B5094B002B03D00848094900E000BFDF
:1001D00008480368002B03D0074B002B00D098473A
:1001E000FFF7C2FF08BDC04600000000C09D000030
:1001F000DC080020000000200000000080B582B074
:1002000000AF7860A023DB057A68C132FF3292002C
:100210000121D150BD4602B080BDC04680B582B03C
:1002200000AF7860A023DA057B6801219940024B7A
:10023000D150BD4602B080BD0C05000090B583B022
:1002400000AF7860A023DA05A023D905064BC95872
:100250007B680120041C9C40231C5940024BD15058
:10026000BD4603B090BDC0460405000080B584B013
:1002700000AFF860B9607A6006480749FA68BB6861
:1002800002F04AFD054B1B68024A101C9847BD4608
:1002900004B080BD94090020D09D0000080000201B
:1002A00080B500AF034B1B68181C02F06FFBBD4606
:1002B00080BDC0469009002080B500AF8023DA05DC
:1002C00080235B000021D1508023DB0501221A60CE
:1002D000C0468023DA0580235B00D358002BF8D07A
:1002E000BD4680BD80B582B000AF78600A1CFB1CA3
:1002F0001A70244B1B7801221A40D2B251424A4153
:10030000D2B20133D9B21F4B1970002A11D01E4A44
:100310001E4B111C1A1C0923081C111C1A1C02F06C
:100320000DFC1B4B1B68184A101C984702F0DAF9A9
:1003300010E002F09BF9174B1B78DBB21249164A0A
:10034000081C111C1A1C02F0E7FC114B1B680E4A1A
:10035000101C9847FB1C1B780B49104A081C111CE9
:100360001A1C02F0D9FC0A4B1B68074A101C98475C
:100370000C20FFF763FF0020FFF760FFBD4602B0CF
:1003800080BDC046F408002094090020E89D0000CC
:100390000800002044090020F49D0000009E000099
:1003A00080B58AB002AF0C20FFF728FF0C20FFF7C2
:1003B00035FF0020FFF722FF1720162101F0EEFA8B
:1003C0003D4B181C02F09EF93C4A3D4B111C1A1C77
:1003D0000D23081C111C1A1C02F0B0FB394B1B68C2
:1003E000364A101C984702F0C1F802F017F93B1D7D
:1003F00001221A603B1D3A1C0C325A603A1C3B1D0C
:10040000101C191C02F0ECF9021C2F4B1A602E4B29
:100410001A682D4B19682D4B0091101C01210122E7
:1004200002F00AFA62B6254A294B111C1A1C0A234B
:10043000081C111C1A1C02F081FB224B1B681F4A6E
:10044000101C98470023FB6100E0C046FB69181CA4
:10045000204902F067FB0B1C5A425341DBB2FA6998
:100460000132FA61002B10D00020FFF7E7FE1A4B93
:100470001A681A4B1B78DBB21048194902F04CFC81
:10048000104B1B680D4A101C9847144B1B78DBB2AD
:10049000002BDAD0114B00221A700F4B1B68074952
:1004A000104A081C111C1A1C02F036FC054B1B6874
:1004B000024A101C9847C8E7891A000094090020D6
:1004C000089E00000800002090090020E5020000BE
:1004D000189E000050C30000480900204409002075
:1004E000249E0000309E000080B582B000AF021C48
:1004F000FB1D1A70064BFA1D1278111C1F220A40B0
:100500000121081C9040021C1A60BD4602B080BD4B
:1005100000E100E080B582B000AF021CFB1D1A7044
:10052000074AFB1D1B78191C1F230B400121081CC7
:100530009840031C191C8023D150BD4602B080BDD9
:1005400000E100E080B582B000AF021CFB1D1A7014
:10055000084AFB1D1B78191C1F230B400121081C96
:100560009840031C191C80235B00D150BD4602B08B
:1005700080BDC04600E100E080B582B000AF021C43
:10058000FB1D1A70084AFB1D1B78191C1F230B400A
:100590000121081C9840031C191CC0235B00D1508A
:1005A000BD4602B080BDC04600E100E0B0B582B0FB
:1005B00000AF021C3960FB1D1A70FB1D1B787F2BDE
:1005C00032D93049FB1D1B781A1C0F231340083BFE
:1005D00098082C4AFB1D1B781C1C0F232340083B4A
:1005E0009B0806339B00D3185B68FA1D1278141C15
:1005F00003222240D200FF24251C95402A1CD2430E
:100600001A403B689C01FF231C40FB1D1B781D1CEE
:1006100003232B40DB00251C9D402B1C1A43831D0C
:100620009B00CB185A6029E0174BFA1D127852B282
:1006300092081549F81D007840B28008C03080004B
:100640004158F81D0078041C03202040C000FF24FE
:10065000251C8540281CC043084039688C01FF21B7
:100660000C40F91D09780D1C03212940C900251CE7
:100670008D40291C0143C0329200D150BD4602B0CA
:10068000B0BDC04600ED00E000E100E080B582B002
:1006900000AF021CFB1D1A70FB1D1B787F2B16D9A7
:1006A000164AFB1D1B78191C0F230B40083B9B08A7
:1006B00006339B00D3185A68FB1D1B78191C0323B3
:1006C0000B40DB00111CD9400B1C9B0911E00C4BAB
:1006D000FA1D127852B29208C0329200D258FB1D15
:1006E0001B78191C03230B40DB00111CD9400B1C89
:1006F0009B09181CBD4602B080BDC04600ED00E05D
:1007000000E100E080B582B000AF0C4B5B68DB0518
:10071000DB0D7B607B68002B0BD07B68103B3B6064
:100720003B68DBB25BB2181CFFF7B0FF031CDBB207
:1007300000E00423181CBD4602B080BD00ED00E0BF
:1007400080B582B000AF78607A68032313405A42C4
:100750005341DBB2181CBD4602B080BD20DF70479C
:10076000181CC04621DF7047181CC04622DF7047A6
:10077000181CC04623DF7047181CC04624DF704792
:10078000181CC04625DF7047181CC04626DF70477E
:10079000181CC04627DF7047181CC04628DF70476A
:1007A000181CC04629DF7047181CC0462ADF704756
:1007B000181CC0462BDF7047181CC0462CDF704742
:1007C000181CC0462DDF7047181CC0462EDF70472E
:1007D000181CC0462FDF7047181CC04632DF704718
:1007E000181CC04633DF7047181CC04630DF704706
:1007F000181CC04631DF7047181CC04634DF7047F4
:10080000181CC04635DF7047181CC04636DF7047DD
:10081000181CC04637DF7047181CC04638DF7047C9
:10082000181CC04639DF7047181CC0463ADF7047B5
:10083000181CC0463BDF7047181CC0463CDF7047A1
:10084000181CC0463EDF7047181CC0463FDF70478B
:10085000181CC04640DF7047181CC0463DDF70477B
:10086000181CC04641DF7047181CC04642DF704765
:10087000181CC04643DF7047181CC04644DF704751
:10088000181CC04645DF7047181CC04646DF70473D
:10089000181CC04647DF7047181CC04648DF704729
:1008A000181CC04649DF7047181CC0464ADF704715
:1008B000181CC0464BDF7047181CC04680B582B07C
:1008C00000AF78600EE0C046C046C046C046C04695
:1008D000C046C046C046C046C046C046C046C046E8
:1008E000C046C0467B681A1C511E8A41D2B2013BE9
:1008F0007B60002AE7D1BD4602B080BD80B582B0E2
:1009000000AF7860054AA123DB007968D15011203F
:100910000321FFF74BFEBD4602B080BD0010014031
:1009200080B500AF0C4AD1239B0080214902D150F1
:10093000094AC1239B0080214902D1501120FFF7B1
:100940001BFE1120FFF7D0FD034B01221A602F2060
:10095000FFF7B4FFBD4680BD0010014080B500AF79
:100960001120FFF7D7FD0A4AD2239B0080214902BC
:10097000D150074AC2239B0080214902D150044B29
:1009800001225A602F20FFF799FFBD4680BDC04667
:100990000010014080B500AF024A034BD358181C29
:1009A000BD4680BD001001400405000080B582B046
:1009B00000AF786039607A683B68D31A1B021B0A63
:1009C000181CBD4602B080BD80B582B000AF786013
:1009D000034AA823DB007968D150BD4602B080BD30
:1009E0000010014080B586B000AF78604C4B1968AC
:1009F0007A68131CDB009B189B00CB18BB60494B2B
:100A00001B68013303D1474B7A681A6084E0BB68E6
:100A10005968434B1868434B1A68131CDB009B183A
:100A20009B00C3185B6899421ED83D4B19683D4B2B
:100A30001A68131CDB009B189B00CA18384B1868F7
:100A4000384B19680B1CDB005B189B00C3185968F6
:100A5000BB685B68CB1A5360324B1A68BB681A627A
:100A6000304B7A681A6057E0BB685B68FB602D4BBF
:100A70001B687B612B4B1B683B6117E0284B196897
:100A80003A69131CDB009B189B00CB185B68FA6863
:100A9000D31AFB603B697B61214B19683A69131CCF
:100AA000DB009B189B00CB181B6A3B613B69013341
:100AB0000BD01B4B19683A69131CDB009B189B0079
:100AC000CB185A68FB689A42D8D33B69013313D0DC
:100AD000134B19683A69131CDB009B189B00CA185A
:100AE0000F4B186839690B1CDB005B189B00C3189F
:100AF0005968FB68CB1A5360BB68FA685A60BB68D8
:100B00003A691A62064B19687A69131CDB009B1854
:100B10009B00CB187A681A62BD4606B080BDC046FD
:100B2000FC0800200809002080B586B000AF78607E
:100B3000374B1B687B617B693B610FE03A697B68DF
:100B40009A420FD03B697B61324B19683A69131C9A
:100B5000DB009B189B00CB181B6A3B613B69013390
:100B6000ECD100E0C0463B6901334DD07A693B6966
:100B70009A420BD1274B1968254B1A68131CDB00CE
:100B80009B189B00CB181A6A214B1A60214B1968DD
:100B90003A69131CDB009B189B00CB185B68FB6059
:100BA0001C4B19687A69131CDB009B189B00CA1840
:100BB000184B186839690B1CDB005B189B00C318C5
:100BC0001B6A1362134B19687A69131CDB009B18AC
:100BD0009B00CB181B6A3B613B69013315D00D4B61
:100BE00019683A69131CDB009B189B00CA18094B53
:100BF000186839690B1CDB005B189B00C318596827
:100C0000FB68CB18536000E0C046BD4606B080BD0F
:100C100008090020FC08002080B500AF1120FFF774
:100C200091FCBD4680BDC04680B500AF1420FFF7E3
:100C300089FCBD4680BDC04680B584B000AF7860F9
:100C4000134B1B68002B19D0114B1A687B689969EC
:100C50007B68DB69081C191C9047031CFB60FB6860
:100C6000BB60BB68002B0FD0B968A9235A00094BA1
:100C7000081C111C1A1CFFF7F9FA05E07B689A6939
:100C80007B68DB69181C9047BD4604B080BDC04638
:100C90001C0900203C9E000080B586B000AF304BA0
:100CA0001B68013358D000237B612E4B1A783B1C04
:100CB000133301321A703B1C13331B78022B03D100
:100CC0003B1C133300221A70274B1B783A1C13323B
:100CD00012789A4232D0FFF75DFE021C234B1B684C
:100CE000101C191CFFF762FE031CBB601C4B1B6829
:100CF000FB601EE01E4B1968FA68131CDB009B1892
:100D00009B00CB187B607B685A68BB689A4214D8FA
:100D10007B685B68BA68D31ABB607B685B687A697A
:100D2000D3187B617B681B6AFB607B68181CFFF72C
:100D300083FFFB680133DDD100E0C046094B1B781F
:100D40001A1C0C4B92007969D150064B3A1C133295
:100D500012781A70FFF768FFBD4606B080BDC04626
:100D60000809002019090020180900200C0900209A
:100D7000FC0800201009002080B582B000AF786028
:100D8000184B1A78184B1B789A4223D0154B1B78B6
:100D90001A1C164B9200D2587B681A60114B1B78B4
:100DA0000133DAB20F4B1A700E4B1B78022B02D1B3
:100DB0000C4B00221A707B681A680D4B1B68D21806
:100DC0000B4B1A600A4B1B681B021A0A084B1A606D
:100DD000012303E07B6800221A600023181CBD4633
:100DE00002B080BD18090020190900201009002058
:100DF0000C09002080B586B000AF464B1B683B61F4
:100E00003B1C1733444A12781A7069E0434B1A6846
:100E10003B1C17331B78DB00D318FB603B1C1633DD
:100E2000FA6812781A7054E0FB6859683B1C163354
:100E30001A78131C5B009B18DB00CB18BB603B1CB3
:100E400016333A1C1632127801321A70FB689B78FE
:100E50003A1C163212789A4203D13B1C16330022F8
:100E60001A70BB681B78022B02D0032B29D02EE00E
:100E70002B4B1968BB685A68131CDB009B189B003E
:100E8000CB187B607B681B7D002B21D0BB685B6827
:100E9000181CFFF749FE7B6800221A7518E0204BEA
:100EA00019681C4B1A68131CDB009B189B00CB189D
:100EB0003B603B6800221A753B681A6A154B1A6042
:100EC00000E0C046134B1B680133E8D101E000E0AD
:100ED000C046FB685B783A1C163212789A42A3D15E
:100EE0003B1C17331B785A1E9341DBB23A1C173256
:100EF000391C1731097801391170002B86D1054B47
:100F00001A683B69D31A5A1E9341DBB2181CBD46BE
:100F100006B080BD08090020000900200409002057
:100F2000FC08002080B588B000AFF860B9607A6036
:100F30000023FB6142E0254B1968254B1A68131CFE
:100F4000DB009B189B00CB18BB61BB695A68FB6830
:100F50009A4206D9BB695A68FB68D21ABB695A60C3
:100F600030E0BB695B68FA68D31AFB60BB695B68F9
:100F7000FA69D318FB61BB6900225A60BB69002281
:100F80001A75134B1B687B61BB691A6A104B1A6098
:100F9000BB691B69002B11D0BA68FB69D3181B020F
:100FA0001A0ABB699A60BB691A69BB69DA607B6817
:100FB0001A68BB691A627B687A691A60044B1B68FD
:100FC0000133B8D1BD4608B080BDC046FC08002042
:100FD0000809002080B58AB000AF7860664B1B68B6
:100FE000BB613B1C2733654A12781A70A8E0644B3A
:100FF0001A683B1C27331B78DB00D3187B6194E015
:101000007B6801330ED07B683B625E4B19683A6A9D
:10101000131CDB009B189B00CB18FB61FB691B6A50
:101020007B603DE07B6959687B691B781A1C131C47
:101030005B009B18DB00CB183B617B691B7801339D
:10104000DAB27B691A707B691A787B699B789A425D
:1010500002D17B6900221A703B695B683B62494B95
:1010600019683A6A131CDB009B189B00CB18FB61C4
:101070003B691B78012B57D1FB691B7D002B53D19A
:101080003B699A68FB699A603B69DA68FB69DA60D8
:101090003B691A69FB691A613B695A69FB69DA6144
:1010A000FB699A68384B1B68D31A1B021A0A374B24
:1010B0009A420ED8FB699A68334B1B68101C191CA6
:1010C000FFF774FC021CFB69DB68D218FB695A60ED
:1010D00018E02D4B1A68FB699B68101C191CFFF760
:1010E00065FC031CFB60FB69DA68FB689A4206D961
:1010F000FB69DA68FB68D21AFB695A6002E0FB6997
:1011000000225A60FB6900229A60FB690022DA60C3
:10111000FB6901221A75FB69012252421A623B6A7D
:10112000181CFFF75FFC00E0C0467B68013300D06D
:1011300066E77B691A787B695B789A4200D05FE743
:101140003B1C27331B785A1E9341DBB23A1C2732D3
:10115000391C2731097801391170002B00D046E77E
:10116000054B1A68BB69D31A5A1E9341DBB2181C8F
:10117000BD460AB080BDC046080900200009002015
:1011800004090020FC0800200C090020FEFF7F005D
:1011900090B587B000AF7860264B1B68013344D010
:1011A000254B1968234B1A68131CDB009B189B0006
:1011B000CB185B687B61FFF7EDFB031C3B611F4BAA
:1011C0001B68FB603A69FB68101C191CFFF7EEFBFB
:1011D000031C0333BB607B68013301D1FFF7A0FB25
:1011E0007A69BB68934200D2131CFA68D318FB607B
:1011F000FB681B021B0AFB60FB68181CFFF7E4FB83
:10120000FFF7C8FB021C3B69101C191CFFF7CEFB43
:10121000041CFA683B69101C191CFFF7C7FB031C70
:101220009C4204D9FFF7F8FC01E0FFF797FBBD46AD
:1012300007B090BD08090020FC0800200C09002020
:1012400090B587B000AF01235B427B601D4B1B68EC
:101250003B611D4B1B68FB603C1C0B343B1C181C8A
:10126000FFF78AFD031C23703C1C1734FFF7C2FDF7
:10127000031C23703B1C0B331B78002B0BD03968ED
:101280003A693B1D081C111C1A1CFFF74BFE3B1C46
:10129000173301221A707B68181CFFF79BFE031C92
:1012A00003D03B1C173301221A703B1C17331B78E9
:1012B000002B03D0FB68181CFFF76AFFBD4607B080
:1012C00090BDC0460C0900200809002080B584B0FC
:1012D00000AF78607B685B780133FB607B689B784C
:1012E0001A1CFB689A4201D10023FB607B681B78C3
:1012F0001A1CFB689A4201D100230FE07B685968F1
:101300007B685B781A1C131C5B009B18DB00CB18F6
:10131000BB60FB68DAB27B685A70BB68181CBD46BC
:1013200004B080BD80B586B000AFF860B9607A6067
:101330003B60154B1A68FB68DB00D318181CFFF7DD
:10134000C5FF031C7B617B69002B01D1042316E0E0
:101350007B6901221A707B69BA685A60FFF71AFB31
:10136000021C7B699A607B697A68DA607B693A68FB
:101370001A617B693A6A5A61FFF756FC0023181C10
:10138000BD4606B080BDC0460409002080B584B0CB
:1013900000AF786039600E4B1A687B68DB00D318A9
:1013A000181CFFF793FF031CFB60FB68002B01D1A7
:1013B000042308E0FB6802221A70FB683A685A604E
:1013C000FFF732FC0023181CBD4604B080BDC046A8
:1013D0000409002080B584B000AF78600E4B1A6815
:1013E0007B68DB00D318181CFFF770FF031CFB6041
:1013F000FB68002B01D1042309E0FB6803221A706B
:10140000FB68012252425A60FFF70EFC0023181CB1
:10141000BD4604B080BDC0460409002080B500AFC1
:10142000104AA0235B000021D1500E4AA2235B008A
:101430000021D1500B4AA4235B000021D150094A5E
:10144000A6235B000021D150064A80235B000021C7
:10145000D150044A82235B000021D150FFF71CFCCD
:10146000BD4680BD0010014080B500AFFFF7E8FE2B
:10147000BD4680BD80B586B000AFF8607B603B1C88
:101480000B3319703B1C0A331A707B68181CFFF76A
:1014900057F9031C01225340DBB2002B01D0072374
:1014A00089E07B68002B01D1072384E0FFF756FA1F
:1014B000434B3A6A1A60434B3A1C0B3212781A704B
:1014C000414B7A681A6000237B6116E03E4B196835
:1014D0007A69131CDB009B189B00CB1800221A7042
:1014E000394B19687A69131CDB009B189B00CB18D9
:1014F00000221A757B6901337B613B1C0B331A7820
:101500007B699A42E2DC3B1C0B331A78131CDB002C
:101510009B189B007A68D3187B602C4B03221A70AF
:101520002B4B7A681A607B6818337B6000237B61E1
:1015300020E0274B1A687B69DB00D3183B613B69CD
:1015400000221A703B6900225A703B693A1C0A3229
:1015500012789A703B697A685A603B1C0A331A7891
:10156000131C5B009B18DB007A68D3187B607B69D7
:1015700001337B617B69022BDBDD164B012252427A
:101580001A60154B00221A70144B00221A70142096
:10159000FEF7F2FF14200321FFF708F81420FEF7EE
:1015A000A3FFFB68181CFFF7A9F9FFF7F3F9021C6A
:1015B0000B4B1A600023181CBD4606B080BDC04608
:1015C0001C090020F8080020FC0800200009002069
:1015D000040900200809002018090020190900202A
:1015E0000C09002080B586B000AFF8607A603B1C23
:1015F0000B330A1C1A70284B1B68002B01D10823DF
:1016000046E07B68002B01D1072341E0FB68002BFB
:1016100001D107233CE000237B6132E01E4B1968B7
:101620007A69131CDB009B189B00CB181B78002BDE
:1016300024D1194B19687A69131CDB009B189B0095
:10164000CB1801221A70144B19687A69131CDB003D
:101650009B189B00CB183A1C0B3212785A700E4B19
:1016600019687A69131CDB009B189B00CB187A68F9
:101670009A617A69FB681A60002309E07B6901338B
:101680007B61064B1B781A1C7B699A42C6DC0423DB
:10169000181CBD4606B080BDFC080020F8080020DC
:1016A00080B582B000AFFFF72DF8031C012B02D0EC
:1016B000032B03D005E000237B6005E001237B6062
:1016C00002E002237B60C0467B68181CBD4602B066
:1016D00080BDC04690B589B002AFF860B9607A604D
:1016E0001D4B1B68002B01D1082330E01B4B1B78DE
:1016F0001A1CFB689A4202D9BB68042B01D8072345
:1017000025E0154B1968FA68131CDB009B189B0039
:10171000CB181B78012B01D0082318E00E4B196859
:10172000FA68131CDB009B189B00CB185B78012B1D
:1017300001D1BB6800E000237B61FFF7B1FFF968CE
:10174000BA687B697C680094FFF7ECFD031C181CE9
:10175000BD4607B090BDC046FC080020F808002038
:1017600080B582B000AF7860134B1B68002B01D1AD
:1017700008231DE0114B1B781A1C7B689A4201D884
:10178000072315E00C4B19687A68131CDB009B18C3
:101790009B00CB181B78012B01D0082308E0FFF732
:1017A0007FFF021C7B68101C191CFFF7EFFD031C58
:1017B000181CBD4602B080BDFC080020F8080020BF
:1017C00080B500AF074B1B68002B01D1082306E052
:1017D000FFF766FF031C181CFFF7FCFD031C181C19
:1017E000BD4680BDFC08002080B582B000AF7860A7
:1017F000FFF7D0F8021C7B681A600023181CBD4656
:1018000002B080BD80B584B000AFF860B9607A6086
:10181000FA68BB68101C191CFFF7C8F8021C7B682B
:101820001A600023181CBD4604B080BD80B582B08C
:1018300000AF021CFB1D1A70064BFA1D1278111C1A
:101840001F220A400121081C9040021C1A60BD465C
:1018500002B080BD00E100E080B582B000AF7860EA
:10186000A023DB057A68C132FF3292000121D150FA
:10187000BD4602B080BDC04680B582B000AF786082
:101880000A1CFB1C1A70A023DB05FA1C12789200BC
:10189000111C7A68C132FF329200D150BD4602B0AD
:1018A00080BDC04680B582B000AF021CFB1D1A701F
:1018B000094AFB1D1978094BD150C046064A8E23B0
:1018C0005B00D358012BF9D1034A8E235B00002122
:1018D000D150BD4602B080BD002000401C05000074
:1018E00080B582B000AF7860124B1B78DBB2002B62
:1018F00001D1002319E00F4B1B78DBB2013BDAB2B8
:101900000C4B1A700C4B1B78DBB20C4AD35CDAB26E
:101910007B681A70084B1B78DBB20133DAB20F23F5
:101920001340DAB2044B1A700123181CBD4602B0F2
:1019300080BDC04632090020310900202009002066
:1019400080B582B000AFC046114B1B78DBB2002BD4
:10195000FAD00F4B1B78DBB2013BDAB20C4B1A709A
:101960000C4B1B78DBB20C4AD35CDBB27B60094BBF
:101970001B78DBB20133DAB20F231340DAB2054B26
:101980001A707B68DBB2181CBD4602B080BDC04631
:1019900032090020310900202009002080B582B0E2
:1019A00000AF0A1CFB1D011C1970BB1D1A70214BD6
:1019B00000221A70204B00221A70204B00221A704D
:1019C000FB1D1B78181CFFF747FFBB1D1B78181C5D
:1019D0000021FFF751FF1A4AFB1D1978194BD1500E
:1019E000174ABB1D1978184BD150154A174B184987
:1019F000D150134AA023DB000421D150104B012207
:101A00009A600F4B01221A600D4A84235B0000216B
:101A1000D1500B4A0A49C1239B00CB5804211943DA
:101A2000C1239B00D1500220FFF700FFBD4602B04A
:101A300080BDC04630090020310900203209002055
:101A4000002000400C0500001405000024050000E3
:101A500000509D0080B582B000AF786007E07B68E1
:101A60001B787A6801327A60181CFFF71BFF7B68CD
:101A70001B78002BF3D1034B181C00F005F8BD4672
:101A800002B080BD689E000080B582B000AF786073
:101A900007E07B681B787A6801327A60181CFFF7D0
:101AA00001FF7B681B78002BF3D1BD4602B080BDDF
:101AB00080B500AF154B1B78DBB2102B04D9144B4B
:101AC000181CFFF7C7FFFEE7104B1B78DBB2013392
:101AD000DAB20E4B1A700F4B1B78DBB20E49A32201
:101AE000D2008A58D1B20D4AD1540A4B1B78DBB2CE
:101AF0000133DAB20F231340DAB2064B1A70064AEA
:101B000084235B000021D150BD4680BD32090020F6
:101B10006C9E0000300900200020004020090020B9
:101B200080B584B000AFF860B960BB1D1A80BB6897
:101B3000002B01D10E231CE0BB1D1B88002B06D0FF
:101B4000BB1D1B88013BBA1D1288134001D009231D
:101B50000FE0FB68BA681A60BB1D1B88013B9AB294
:101B6000FB689A80FB6800229A60FB680022DA60BA
:101B70000023181CBD4604B080BDC04680B582B0AD
:101B800000AF78600A1CFB1C1A707B68DA687B68FF
:101B90009B68D21A7B689B889A4211D87B681A6826
:101BA0007B68DB68796889880B40D318FA1C127847
:101BB0001A707B68DB685A1C7B68DA60002300E0DF
:101BC0000423181CBD4602B080BDC04680B582B05B
:101BD00000AF786039607B68DA687B689B689A42FE
:101BE00011D07B681A687B689B68796889880B408C
:101BF000D3181A783B681A707B689B685A1C7B68FC
:101C00009A60002300E00523181CBD4602B080BD89
:101C100080B582B000AF78607B68DA687B689A60D4
:101C20000023181CBD4602B080BDC04680B582B0FE
:101C300000AF021CFB1D1A70064BFA1D1278111C16
:101C40001F220A400121081C9040021C1A60BD4658
:101C500002B080BD00E100E080B582B000AF021CA0
:101C6000FB1D1A70084AFB1D1B78191C1F230B4013
:101C70000121081C9840031C191CC0235B00D15093
:101C8000BD4602B080BDC04600E100E0B0B582B004
:101C900000AF021C3960FB1D1A70FB1D1B787F2BE7
:101CA00032D93049FB1D1B781A1C0F231340083B07
:101CB00098082C4AFB1D1B781C1C0F232340083B53
:101CC0009B0806339B00D3185B68FA1D1278141C1E
:101CD00003222240D200FF24251C95402A1CD24317
:101CE0001A403B689C01FF231C40FB1D1B781D1CF8
:101CF00003232B40DB00251C9D402B1C1A43831D16
:101D00009B00CB185A6029E0174BFA1D127852B28B
:101D100092081549F81D007840B28008C030800054
:101D20004158F81D0078041C03202040C000FF2407
:101D3000251C8540281CC043084039688C01FF21C0
:101D40000C40F91D09780D1C03212940C900251CF0
:101D50008D40291C0143C0329200D150BD4602B0D3
:101D6000B0BDC04600ED00E000E100E080B582B00B
:101D700000AF78607A68032313405A425341DBB2C4
:101D8000181CBD4602B080BD80B586B000AF78603B
:101D9000396000237B6145E07B690122111C994079
:101DA0000B1CFB603B68FA68134038D07B68DB682B
:101DB000FA68134009D180239B023B617B68DA6893
:101DC000FB681A437B68DA6009E0C0239B023B6131
:101DD0007B68DB68FA68D2431A407B68DA60A0232C
:101DE000DB05A022D2057969C131FF31890089580C
:101DF0000F4A11407A69C132FF329200D150A023BC
:101E0000DB05A022D2057969C131FF3189008958EB
:101E10003A6911437A69C132FF329200D1507B692D
:101E200001337B617B691F2BB6D9BD4606B080BDEF
:101E3000FFFFFCFF80B586B000AFA023DA05A22328
:101E4000DB00D3583B612D4ABE235B000021D150FB
:101E50003B1C173300221A7046E0294B19683B1CC3
:101E600017331A78131C9B009B189B00CB18FB6040
:101E70003B1C17331B780122111C99400B1C1A1CA8
:101E8000204B1B68134028D0FB68DB68DA433B69B2
:101E90005A40FB681B681340BB60FA68BB68101CA3
:101EA000191CFFF771FF3B69DA43FB689B6813401D
:101EB000BA6813407B60FB685B683A691340BA6894
:101EC00013403B603A687B68134306D0FB681B698C
:101ED00039687A68081C111C98473B1C17333A1C58
:101EE0001732127801321A70074B1B783A1C1732DE
:101EF00012789A42B1D3BD4606B080BD0060004062
:101F00003C090020340900203909002080B584B044
:101F100000AF021CFB1D1A700023FB6031E01C4B5C
:101F20001968FB1D1A78131C9B009B189B00CB188B
:101F30001B68FA680121081C9040021C13401DD048
:101F4000A023DB05A022D205F968C131FF31890049
:101F50008958104A1140FA68C132FF329200D150BC
:101F6000A023DB05A022D205F968C131FF31890029
:101F70008958FA68C132FF329200D150FB680133B0
:101F8000FB60FB681F2BCAD9BD4604B080BDC046AC
:101F90003C090020FFFFFCFF80B582B000AF021CAF
:101FA0003960FB1D1A703B68002B01D1072337E015
:101FB0003B68181CFFF7DAFE031C01225340DBB21A
:101FC000002B01D007232BE0174B3A681A60174B00
:101FD000FA1D12781A70164B00221A70154B002247
:101FE0001A60114B1968114B1B781A1C131C9B00AB
:101FF0009B189B00081C00211A1C00F023FE0E4AAF
:10200000C2239B0001214942D1500620FFF724FE44
:1020100006200121FFF73AFE0620FFF707FE002306
:10202000181CBD4602B080BD3C09002038090020C4
:1020300039090020340900200060004080B584B0D8
:1020400000AFF860B9607A603B602C4B1B68002BD6
:1020500001D108234DE03B68002B01D1072348E064
:10206000274B1A78274B1B789A4201D3042340E070
:10207000224B1968224B1B781A1C131C9B009B18BF
:102080009B00CB18B9687A680A431A601B4B196821
:102090001B4B1B781A1C131C9B009B189B00CB1816
:1020A000BA685A60154B1968154B1B781A1C131C1B
:1020B0009B009B189B00CB187A689A600F4B19689D
:1020C0000F4B1B781A1C131C9B009B189B00CB18F2
:1020D0003A681A610A4B1B78FA68191C11700133AF
:1020E000DAB2074B1A70FB681B78181CFFF70EFF5B
:1020F0000023181CBD4604B080BDC0463C0900202A
:10210000390900203809002080B586B000AF021CD4
:10211000FB1D1A704D4B1B68002B01D1082391E069
:102120004B4B1B78FA1D12789A4201D3072389E0A2
:10213000484ABE235B000021D150A023DA05A22328
:10214000DB00D358FB60444B1B68002B05D1414A90
:10215000C1239B0080210906D150FB1D1B78012261
:10216000111C99400B1C1A1C3B4B1B681A433A4B21
:102170001A60364B1968FB1D1A78131C9B009B18BC
:102180009B00CB180022DA6000237B6156E07B695C
:102190000122111C99400B1CBB602C4B1968FB1DC4
:1021A0001A78131C9B009B189B00CB181B68BA68FD
:1021B000134040D0FB68BA68134003D0C0239B0291
:1021C0003B6118E080239B023B61204B1968FB1D9B
:1021D0001A78131C9B009B189B00CA181B4B18688D
:1021E000FB1D19780B1C9B005B189B00C318D9685A
:1021F000BB680B43D360A023DB05A022D20579691D
:10220000C131FF3189008958144A11407A69C132BD
:10221000FF329200D150A023DB05A022D2057969BC
:10222000C131FF31890089583A6911437A69C13255
:10223000FF329200D1507B6901337B617B691F2B98
:10224000A5D90023181CBD4606B080BD3C0900205E
:10225000390900200060004034090020FFFFFCFF26
:1022600080B582B000AF021CFB1D1A70164B1B68B4
:10227000002B01D1082323E0144B1B78FA1D1278A0
:102280009A4201D307231BE0FB1D1B78181CFFF7A4
:102290003DFEFB1D1B780122111C99400B1CDA43EB
:1022A0000B4B1B681A400A4B1A60094B1B68002B2A
:1022B00005D1084AC2239B0080210906D150002382
:1022C000181CBD4602B080BD3C0900203909002021
:1022D000340900200060004080B584B000AF021CCB
:1022E0003960FB1D1A70134B1B68002B01D10823AA
:1022F0001CE0114B1B78FA1D12789A4201D3072378
:1023000014E00C4B1968FB1D1A78131C9B009B18DA
:102310009B00CB18FB60A023DA05A223DB00D25878
:10232000FB681B681A403B681A600023181CBD46F6
:1023300004B080BD3C0900203909002080B582B07E
:1023400000AF021CFB1D1A70064BFA1D1278111CFF
:102350001F220A400121081C9040021C1A60BD4641
:1023600002B080BD00E100E020DF7047181CC046CD
:1023700021DF7047181CC04622DF7047181CC0467A
:1023800023DF7047181CC04624DF7047181CC04666
:1023900025DF7047181CC04626DF7047181CC04652
:1023A00027DF7047181CC04628DF7047181CC0463E
:1023B00029DF7047181CC0462ADF7047181CC0462A
:1023C0002BDF7047181CC0462CDF7047181CC04616
:1023D0002DDF7047181CC0462EDF7047181CC04602
:1023E0002FDF7047181CC04632DF7047181CC046EC
:1023F00033DF7047181CC04630DF7047181CC046DA
:1024000031DF7047181CC04634DF7047181CC046C7
:1024100035DF7047181CC04636DF7047181CC046B1
:1024200037DF7047181CC04638DF7047181CC0469D
:1024300039DF7047181CC0463ADF7047181CC04689
:102440003BDF7047181CC0463CDF7047181CC04675
:102450003EDF7047181CC0463FDF7047181CC0465F
:1024600040DF7047181CC0463DDF7047181CC0464F
:1024700041DF7047181CC04642DF7047181CC04639
:1024800043DF7047181CC04644DF7047181CC04625
:1024900045DF7047181CC04646DF7047181CC04611
:1024A00047DF7047181CC04648DF7047181CC046FD
:1024B00049DF7047181CC0464ADF7047181CC046E9
:1024C0004BDF7047181CC04680B582B000AF786003
:1024D0000A1CFB1C1A70A023DB05FA1C1278920060
:1024E000111C7A68C132FF329200D150BD4602B051
:1024F00080BDC04690B583B000AF7860A023DA05F8
:10250000A023D905064BC9587B680120041C9C40B8
:10251000231C5940024BD150BD4603B090BDC0466C
:102520000405000080B584B000AFF860B960FB1D01
:102530001A700D4BBA681102FA1D127812040A4380
:1025400001211143FA684532FF329200D150C04652
:10255000C046C046044BFA68403292000021D15078
:10256000BD4604B080BDC0460060004080B500AFED
:102570008023DA0580235B000021D1508023DB0516
:1025800001221A60C0468023DA0580235B00D358FD
:10259000002BF8D00A4A0B4B0021D150084AA22345
:1025A000DB000021D150064AA123DB000021D150DD
:1025B000034B01225A60024B0122DA60BD4680BD06
:1025C000009000400405000080B500AF084AA22337
:1025D0005B00D358012B09D1054AA2235B000021DF
:1025E000D150044B1B685A1C024B1A60BD4680BD7B
:1025F000009000404009002080B500AF054B00224C
:102600001A60054B0122DA60034B01221A60BD46B5
:1026100080BDC046400900200090004080B500AF5A
:102620000B200121FFF750FF0620FFF787FE002057
:102630000B210122FFF776FFBD4680BD80B500AFBC
:10264000034AC1239B000121D150BD4680BDC04635
:102650000060004080B500AF034AC2239B00012107
:10266000D150BD4680BDC0460060004080B500AF7F
:10267000174A80235B000021D1500020FFF73AFF6A
:10268000144B01221A64134AA823DB00D258124BC0
:102690001A60124B1B681A040F4B1B68D2180E4BA2
:1026A0001A600C4AA823DB000021D150094B0122FB
:1026B000DA60084B01225A60FFF7CCFF084B1B7809
:1026C000DBB20133DAB2064B1A70BD4680BDC0469C
:1026D00000600040009000404809002040090020B0
:1026E0004409002080B500AFFFF786FFFFF7A6FF83
:1026F000BD4680BD80B582B000AF7860BD4602B0F7
:1027000080BDC04680B582B000AF7860024B7A6869
:102710001A60BD4602B080BD0800002080B582B0BE
:1027200000AF021CFB1D1A70064BFA1D1278111C1B
:102730001F220A400121081C9040021C1A60BD465D
:1027400002B080BD00E100E080B582B000AF7860EB
:102750000A1CFB1C1A70A023DB05FA1C12789200DD
:10276000111C7A68C132FF329200D150BD4602B0CE
:1027700080BDC04680B582B000AF7860A023DA0586
:10278000A223DB00D2587B68DA4001231340181CD7
:10279000BD4602B080BDC04680B584B000AFF860D1
:1027A000B960FB1D1A700D4BBA681102FA1D127840
:1027B00012040A4301211143FA684532FF329200A4
:1027C000D150C046C046C046044BFA684032920021
:1027D0000021D150BD4604B080BDC046006000401D
:1027E00080B584B000AF786039607B683A681A6061
:1027F0000023FB6012E03B685A68FB681B01D3189A
:10280000012252425A603B685A68FB681B01D31888
:10281000012252421A60FB680133FB603B681A6870
:10282000FB689A42E7DC0620FFF778FF7B68181CFC
:10283000BD4604B080BDC04690B589B000AFF86019
:10284000B9607A603B60FB681B68BB610023FB6179
:1028500019E0BB695A68FB691B01D3187B617B696E
:102860005B6801330CD17B697A685A607B69BA680E
:102870001A607B693A689A607B693A6BDA6007E0B4
:10288000FB690133FB61BB691A68FB699A42E0DCB2
:10289000BB691A68FB699A4202D101235B421AE0C4
:1028A000BB68181C0321FFF74FFF7A68BB68101C38
:1028B000191C0322FFF770FF094A0949C1239B0035
:1028C000C9587B680120041C9C40231C1943C12368
:1028D0009B00D1500023181CBD4609B090BDC046D6
:1028E0000060004090B587B000AFF860B9607A60D2
:1028F000FB681B683B6100237B6125E03B695A68EC
:102900007B691B01D3185A687B689A4219D13B69CD
:102910005A687B691B01D3181A68BB689A4210D1A8
:102920003B695A687B691B01D318012252425A60E5
:102930003B695A687B691B01D318012252421A6015
:1029400007E07B6901337B613B691A687B699A42C6
:10295000D4DC3B691A687B699A4202D101235B424D
:102960000EE0094A0849C2239B00C9587B68012030
:10297000041C9C40231C1943C2239B00D1500023FC
:10298000181CBD4607B090BD0060004080B588B0FF
:1029900000AF78607B681B68BB610023FB6144E08B
:1029A000BB695A68FB691B01D3187B617B695B6853
:1029B000013337D0214A7B695B6840339B009B58C9
:1029C000012B2FD11D4A7B695B6840339B0000219E
:1029D00099507B691B68181CFFF7CCFE031C3B61F8
:1029E0003B69002B1AD03B1C0C33181CFEF7FCFE75
:1029F000FA68134B1B68D31A142B07D97B699A68A2
:102A00007B69DB68181C012190470BE07B699A68A1
:102A10007B69DB68181C0021904703E0084B181CF9
:102A2000FEF7E2FEFB690133FB61BB691A68FB69D3
:102A30009A42B5DCBD4608B080BDC046006000408B
:102A40004C09002080B500AF074B1B681A090F2303
:102A50001340012B06D1054B054A1A60054B802215
:102A600012021A60BD4680BDE80F00F00405004068
:102A7000DFFF07C0186C004080B500AF024B034A6F
:102A80001A60BD4680BDC0460C0000200024F40042
:102A9000FEE7FEE7FEE7FEE7FEE7FEE7002934D0AB
:102AA0000123002210B488422CD301242407A14220
:102AB00004D2814202D209011B01F8E7E400A142DD
:102AC00004D2814202D249005B00F8E7884201D378
:102AD000401A1A434C08A04202D3001B5C08224350
:102AE0008C08A04202D3001B9C082243CC08A042C1
:102AF00002D3001BDC082243002803D01B0901D0AD
:102B00000909E3E7101C10BC7047002801D0002021
:102B1000C04307B4024802A14018029003BDC0465A
:102B2000190000000029F0D003B5FFF7B9FF0EBC73
:102B30004243891A1847C0467047C046F0B5574609
:102B40004E464546E0B4032A0CD80023002A04D0A0
:102B5000CC5CC45401339342FAD11CBC90469946D4
:102B6000A246F0BD8218830708D0031C03240D7809
:102B700001311D7001332342F9D100E0031C03240D
:102B80000C4046D06742BA46CE59D71A032F15DDFE
:102B90000427E5003C1BE400AC46A1465446043142
:102BA0000F594C463D1CA540A8466546EE4044469C
:102BB000264340C33E1CD71A032FEFDC9A42CCD9E0
:102BC0000C7801311C7001339342F9D1C5E70C68D0
:102BD0001C604D685D608F689F60CC68DC600D692B
:102BE0001D614F695F618C699C61CD69DD610F6A10
:102BF0001F624C6A5C628D6A9D62CF6ADF620C6BF9
:102C00001C634D6B5D638F6B9F63CC6B4031DC63EA
:102C10004033D41A3F2CDADC0AE00D681D604F689F
:102C20005F608C689C60CD681031DD601033D41A11
:102C30000F2CF2DC02E010C910C3D41A032CFADC0A
:102C4000BCE7C04630B50C1C032A08D8031C111879
:102C5000002A03D01C7001338B42FBD130BD821897
:102C6000830706D0031C03251C7001332B42FBD1C4
:102C700000E0031CFF2529400D0269180D044919C5
:102C8000D51A3F2D1ADD196059609960D960196114
:102C900059619961D961196259629962D96219635E
:102CA00059639963D9634033D51A3F2DEBDC05E0B6
:102CB000196059609960D9601033D51A0F2DF7DC6F
:102CC00001E002C3D51A032DFBDC9A42C6D91C7061
:102CD00001339342FBD1C1E70CB410B59CB0029113
:102CE00006910C491EAB049107918224012104CB6B
:102CF000A40002AA49429481D181111C1E9A019319
:102D000000F02EF8029A002313701CB010BC08BC0F
:102D100002B01847FFFFFF7F0EB400B59CB01DAB9B
:102D200004CB822202A992008A810A4A02908A6018
:102D30004A6101225242CA81074A086110681D9AFD
:102D4000019300F00DF8029A002313701CB008BC28
:102D500003B01847FFFFFF7F1000002000000000B5
:102D6000F0B5564644465F464D46F0B4C7B08A4675
:102D70001193141C0B9002F0BFFA00681A9003F034
:102D80008BFA1B90002000211C901D9151468B89CD
:102D90001A0604D50B69002B01D101F04EF836AFAD
:102DA00008972997002700251E976F46A146D73719
:102DB0000024179536AD29AE002318940F94EC1B10
:102DC000CB46B360736007971F94D1465F463B784C
:102DD0005C46252B1AD0002B02D117E0002B03D024
:102DE00001342378252BF9D15846271A0ED0B16823
:102DF0002860CB196F60B360736801337360072B71
:102E000000DD55E108350F9AD2190F922378002B77
:102E100000D153E3631C83279B466F4400233B7020
:102E20001022002763780124644210970A97924683
:102E300040270822A349944620205A46B846A34674
:102E40000C9301320C9B203B582B00D823E10C9CA7
:102E50009346002C00D131E32CAB1C708320002260
:102E600068440124012702700D940E9715930024E5
:102E70000027169419970A9F02231F40149702D027
:102E80000D9C02340D940A9F84231F40BA4637D10B
:102E9000109F0D983C1A002C32DD8B4F102C22DD38
:102EA00010212B1C88464D4603E0103C0833102CA3
:102EB00017DD42465A60B2681F601032B260726815
:102EC00001327260072AF0DD0B98291C321C03F0D6
:102ED000EBF9002801D000F011FD103C36AB102CAE
:102EE000E7DCA9461D1CB3686C601C1973682F6071
:102EF0000133B4607360072B01DD00F0F4FC08358A
:102F000083246C442378002B0DD001236B60B368BD
:102F10002C600133B360736801337360072B01DDEC
:102F200000F024FC0835149F002F0ED021AB2B603D
:102F300002236B60B3680233B3607368013373605C
:102F4000072B01DD00F01CFC08355046802800D11D
:102F500064E3169F0E983C1A002C3ADD5A4F102C51
:102F60002ADD10221021C91990463A1C2B1C4F460D
:102F70008A460B9D914603E0103C0833102C17DD68
:102F8000B26850461032414618605960B2607268AB
:102F900001327260072AEFDD281C391C321C03F055
:102FA00083F9002800D032E3103C36AB102CE7DC6C
:102FB0001D1C4B46B9461F1CB26873686C60103705
:102FC000141901332F60B4607360072B00DDC4E374
:102FD00008350A9CE40500D5ACE2159C0E9F2C60D8
:102FE0006F60B068C319B360736801337360072BF7
:102FF00000DD88E208350A9C64073CD5109F0D98D7
:103000003C1A002C37DD304F102C22DD1021BA463F
:1030100088464F4603E0103C0835102C17DD434628
:103020006B60B368524610332A60B3607368013333
:103030007360072BEFDD0B98391C321C03F034F959
:10304000002800D0E3E2103C36AD102CE7DCB94696
:1030500057466C602F607368B56801336419B460BB
:103060007360072B08DD0B984946321C03F01CF9EE
:10307000002800D01BE3B4680D9B109FBB4200DA10
:103080003B1C0F9DED180F95002C00D007E300238B
:10309000736036AD9AE69B00CB589F46109F119403
:1030A0007F4210970A9C04231C430A941378C7E6B6
:1030B0000B984946321C03F0F7F8002800D0F6E2DE
:1030C00036ADA0E67C9E0000E09F00000A9F102322
:1030D0001F435C460A9793460A9FBF0601D400F03F
:1030E0004FFC119A072307329A43171C5368126842
:1030F0000837119712921393002B01DA00F091FC1C
:103100001299139801434B1E99410123002C03DBB4
:103110000A9F802297430A97002C02D1002900D1F0
:1031200066E2012B00D184E3022B00D1BAE36B46A7
:10313000D7330720AC46A0461F1C129A139B5D078D
:10314000041C1440AA463034D5085246391C3C7041
:103150002A43DF083B1C151C4F1E1D43EFD1129262
:1031600013933B1C0A9F221C159165464446FF079A
:1031700001D500F0F9FC089F7F1A0E970E9F0D975E
:10318000A74200DA0D948320684416940378002443
:103190001994002B00D16EE60D9C01340D946AE663
:1031A000119B5C4607339346072293431F1C083745
:1031B000119718685B68021C191C824698461C927D
:1031C0001D9303F021F8012801D000F0E8FC5046DF
:1031D0004146D44BD24A04F0D9FA002801D000F07D
:1031E000CFFE832169440B780C9C472C01DD00F055
:1031F0008BFDCD4C15940A9F802297430A97032498
:1032000003270D940E970024002716941997C0E702
:103210000A9C67463C430A94137811E60A9F1023E0
:103220001F435C460A9793460A9FBF0600D4B8E343
:10323000119B072207339343186859681290139122
:10324000139A1F1C011C083711434B1E99411197FB
:103250000023832000226844027057E70A9F10234E
:103260001F435C460A9793460A9FBF0600D4ABE310
:10327000119B0722073393431868596812901391E2
:10328000139A1F1C011C083711434B1E99411197BB
:103290000123DEE7A54F5C4617970A9F9346BF06BA
:1032A00000D496E0119B0722073393431F1C186834
:1032B000596812901391083711970A9FFF0700D59C
:1032C0004DE31299139801434B1E99410223C0E725
:1032D0001378141C6C2B01D100F000FD0A9C57469A
:1032E0003C430A94ACE50A9C9346A40601D400F042
:1032F0006FFC119F0F9C3B68E21704371C605A60FB
:10330000119763E5119F119C3F6804341097002FBB
:1033100000DAC3E61378119492E583215C4600231A
:1033200093466944119A0B70119F126804371592E5
:10333000002A01D100F00AFE1598002C01DA00F0F5
:10334000C9FD0021221C02F079FA002801D100F009
:1033500093FE1599401A0E90A04201DC00F0C5FCC6
:1033600083226A4413780D9411970E940027002449
:10337000169419970DE783246C442378002B01D011
:1033800000F023FC207013785AE5119B119F1B68F5
:10339000043711970A9F129302231F43002021AB89
:1033A0005C460A97934612993022614F1A70139027
:1033B000782278205A7017974B1E99410C9002235F
:1033C00047E75B4F5C4617970A9F9346BF0600D5B9
:1033D00068E70A9FFF0600D509E30A9F7F0600D42D
:1033E00005E3119F00203F8813901297119F043727
:1033F000119762E70A9C47463C430A9413781FE5FD
:1034000083272B236F443B70137819E59346119A59
:10341000119F12682CAB043711971A701EE50A9F92
:1034200001231F430A9713780AE50C9B0024303BC5
:103430000995A5002C1915786400E4182B1C303B65
:103440000132092BF5D90C951094099DFAE41478F2
:103450000C940C9F541C2A2F01D100F085FE3B1CBC
:10346000303B0022AB46092B01D900F00BFE950042
:10347000AA18257852009A182B1C303B0134092BCE
:10348000F5D90C955D469346002A01DA00F0CFFC91
:10349000221CD7E40A9C80273C430A941378CFE48B
:1034A0000A9C04430A941378CAE45C469346BBE63C
:1034B0005C469346D8E65C4693460DE6B768CA4636
:1034C000002F01D000F0D2FC50468389590602D566
:1034D00001235B420F930F9847B03CBC904699463E
:1034E000A246AB46F0BD1D1C4B46B9461F1CB26838
:1034F00010376C602F6014197368B4600133736007
:10350000072B00DC76E50B984946321C02F0CCFE16
:10351000002800D0CBE036AD6DE5C046C046C046C1
:10352000000000000000000000A0000010A000004B
:1035300024A000000C9C652C00DCBAE01C981D99AE
:10354000D24BD14A04F01CF9002800D122E1D04B23
:103550002B6001236B60B3680133B3607368013380
:103560007360072B00DD5BE30835229F189CA742A0
:1035700003DB0A9FFF0700D43DE51B9FB0681A9C40
:103580003B182C606F60B360736801337360072B66
:1035900001DD00F041FC0835189C013C002C00DCEA
:1035A00029E5BC4F102CA2DD10221021C91990462C
:1035B0003A1C2B1C4F468A460B9D914603E008336C
:1035C000103C102C8FDDB268504610324146186016
:1035D0005960B260726801327260072AEFDD281C00
:1035E000391C321C02F060FE002810D136ABE7E730
:1035F000002B0ED10A9FFF070BD5D720302368443C
:1036000003701F9F6846D7300E971590B6E5BA46EF
:103610005AE7002736A80E971590AFE5109F0D9832
:103620003C1A002C00DC94E49A4F102C29DD102267
:103630001021C91990463A1C2B1C4F468A460B9DF7
:10364000914603E0103C0833102C16DDB26850465A
:103650001032414618605960B2607268013272607F
:10366000072AEFDD281C391C321C02F01DFE002841
:10367000CDD1103C36AB102CE8DC1D1C4B46B946B6
:103680001F1CB26873686C601037141901332F6007
:10369000B4607360072B00DD72E2083559E40B98C3
:1036A0004946321C02F000FE002800D1EFE4CA4671
:1036B0000AE7189C012C00DC37E201236B60B36839
:1036C000159C01332C60B360736801337360072B62
:1036D00000DD3FE208351A9F1B9C2F60B7686C60C5
:1036E000E319B360736801337360072B00DD27E2D1
:1036F00008351C981D99654B634A04F041F8002871
:1037000000D0FDE0159BB06801332B60189B013B96
:103710006B601B18B360736801337360072B13DC95
:10372000083525AB2B601E9F5AE41D1C4B46B9463D
:103730001F1CB26873686C601037141901332F6056
:10374000B4607360072BEBDD0B984946321C02F026
:10375000ABFD0028ABD136ADE3E70B984946321CF0
:1037600002F0A2FD0028A2D136AD32E40B98494602
:10377000321C02F099FD002899D136ADFFF7D3FB3A
:103780000B984946321C02F08FFD00288FD136ADD0
:10379000FFF7DBFB229C002C00DC4FE2189F159CFE
:1037A0001598E419199F0C94241ABC4200DD3C1CA6
:1037B000002C0CDDB16815980B1928606C60B360A3
:1037C000736801337360072B00DD8BE30835E34337
:1037D000DB17199F1C403C1B002C00DC44E12D4FE3
:1037E000102C00DC04E21020C0193A1C10212B1C04
:1037F0004F46824688460B9D914604E00833103CB4
:10380000102C00DCF0E152461A60B26840461032DB
:103810005860B260726801327260072AEEDD281CBF
:10382000391C321C02F040FD002800D0EFE636AB18
:10383000E5E71399002902D1129A092A2CD96B467F
:10384000D733A846A246129C139D1F1C201C291C7E
:103850000A22002303F0C2FF30323A70201C0A22F1
:103860000023291C03F0BAFF021C041C0D1C7B1E44
:103870000A43EAD108981597C71B129413950E971F
:10388000544645467AE4C0460000000000000000AF
:1038900040A00000E09F0000131CD72730336F4486
:1038A0003B70AEE66B46D7330F21AC46A0461F1CDB
:1038B000129A139B179D0C1C14402C5D1D073C7025
:1038C00014092A1C381C22431F093B1C141C471EC8
:1038D0001C43EFD1089F15903F1A6546444612924B
:1038E00013930E974AE40B984946321C02F0DCFC15
:1038F000002800D0DBE636ADFFF702FBAA46E3E581
:10390000189C013C002C00DC0BE7CA4F102C00DC9B
:103910000FE710221021C91990463A1C2B1C4F4664
:103920008A460B9D914604E00833103C102C00DCC5
:10393000FBE6B26850461032414618605960B260EA
:10394000726801327260072AEEDD281C391C321CB5
:1039500002F0AAFC002800D059E636ABE5E7129B3E
:1039600013990B4300D116E121AB30221A700CAA37
:1039700012780A9F5A7002231F430A97012168E4B4
:103980000A9FFF0643D40A9F7F0640D5119F00235C
:10399000FB5E119F12930437DB1713931197FFF708
:1039A000ABFB0A9FFF064FD40A9F7F064CD5119FA1
:1039B00000203F8813901297391C119F4B1E99418C
:1039C00004371197002344E40A9FFF0618D40A9F86
:1039D0007F0615D5119F00203F8813901297391C40
:1039E000119F4B1E994104371197012331E411981F
:1039F000119F0068002104371290139111975CE425
:103A000011980021006813911290011CE8E7119FA2
:103A10003B6804371293DB171393119701D4FFF718
:103A20006FFB12981399002342428B41832112921B
:103A3000139369442D230B70111C139A11434B1ED1
:103A400099410123FFF762FB11980021006813914F
:103A50001290011CB1E70B984946321C02F024FC7D
:103A6000002800D023E636AD199F159A229BD41961
:103A7000189FBB424ADB0A9FFF0747D40C9F3A1BA3
:103A8000189FFB1A1F1C934200DD171C002F0BDD33
:103A9000B0682C60C2196F60B260726801327260E7
:103AA000072A00DD35E20835FC43E4172740DC1B1C
:103AB000002C01DCFFF79FFA5E4F102C00DCA9E020
:103AC0001020C0193A1C10212B1C4F4682468846F4
:103AD0000B9D914604E00833103C102C00DC95E06F
:103AE00052461A60B268404610325860B26072683E
:103AF00001327260072AEEDD281C391C321C02F0EC
:103B0000D3FB002800D082E536ABE5E71A9FB0680A
:103B10002F601B9F3A186F60B2607268013272604A
:103B2000072A00DDE9E10835A8E70A9F01233B42A7
:103B300000D0C2E5159C6B60B3682C600133E9E5E9
:103B40000B984946321C02F0AFFB002800D0AEE5CE
:103B500036ADCEE50B984946321C02F0A5FB002895
:103B600000D0A4E536ADB6E5302A03D0159301396F
:103B700030230B70089F15983F1A0E97FFF7FEFA37
:103B80000B984946321C02F08FFB002800D08EE5CE
:103B900036ADFFF7DEF900210223FFF75AFB50464E
:103BA000414602F031FB002800D0C1E00C9C472CBC
:103BB00000DC58E1204C15940A9F802383209F430A
:103BC00068440A970378FFF71AFB1378FFF738F970
:103BD0000A9FFF0600D49BE0119C0F9F23680434CA
:103BE0001F601194FFF7F2F81D1C4B46B9461F1CCD
:103BF000B16873686C6010370C1901332F60B460C2
:103C00007360072B00DD26E708352DE71D1C4B46AA
:103C1000B9461F1CB16810376C602F600C196BE43B
:103C20000B984946321C02F03FFB002800D03EE5CD
:103C300036AD9AE4E09F00000CA00000D64B2B604C
:103C400001236B60B3680133B36073680133736041
:103C5000072B00DD11E10835002C07D1189F002F3C
:103C600004D10A9FFF0701D4FFF7C5F91A9FB06876
:103C70002F601B9F3B186F60B360736801337360E4
:103C8000072B00DD03E22B1C08336442002C00DC10
:103C90000EE1C24F102C00DC4BE11021C919BA46CD
:103CA000884610254F4604E00833103C102C00DCF9
:103CB0003DE142461A60B2685D601032B2607268DF
:103CC00001327260072AEFDD0B98391C321C02F0BA
:103CD000EBFA002800D09AE436ABE6E70A9F0132FF
:103CE00007430A976378FFF7ABF80E9CE343DB17B3
:103CF0001C400D948320684411970024002703780A
:103D000016941997FFF745FAA54C1594FFF773FA27
:103D10000A9C119F640600D49EE0119C68463C21D9
:103D20003F68095A0434069739801194FFF74EF81A
:103D30002023601C00D1ACE00C9F9F430997472FC4
:103D400002D1002C00D1012480230A9F5B001F4375
:103D50001497434600271697002B00DAA3E1099B2E
:103D6000463B5F425F410D97002F00D01EE1099F47
:103D7000452F00D0ABE10223009322AB029323AB8B
:103D8000671C039324AB019704930B985246434658
:103D900000F0CCFA1590C719504641467D4B7C4A3D
:103DA00003F0EEFC002809D1249B9F4200D8F8E1E3
:103DB00030221A7001332493BB42FAD1159ABF1AEC
:103DC0001897099F472F00D121E10C9F652F00DC38
:103DD000F4E10C98229B662800D17AE1189CA3425A
:103DE00000DA66E10A9FFF0700D5A2E1DA43D217A5
:103DF0001A4067240D920E930C941993169F002F6E
:103E000000D1B4E08320149C2D2368440027037064
:103E10000A941697FFF7C0F90B984946321C02F036
:103E200043FA002800D042E436ADFFF7B5FB01238A
:103E30005B429B46221CFFF705F80B98402101F0DE
:103E400073FA554628602861002800D1AEE140236E
:103E500055466B61FEF7A3FF3B680F9C04371C605F
:103E60001197FEF7B3FF4F4C1594A5E60B98494602
:103E7000321C02F019FAFFF727FB0B984946321C57
:103E800002F012FA002801D0FFF711FC229C36AD97
:103E9000E2E60C9C9C430994062455E70B9849469E
:103EA000321C02F001FA002801D0FFF700FC36AB0B
:103EB000189DB768159C7A191C605D60B2607268C5
:103EC00001327260072A01DDFFF71DFB1D1C08355A
:103ED000FFF791F802F0E0F9C343DB170E901840AA
:103EE0000D9007E70B984946321C02F0DDF90028D7
:103EF00001D0FFF7DCFB36AD69E40B984946321C74
:103F000002F0D2F9002801D0FFF7D1FB229B36AD99
:103F1000B4E50B984946321C02F0C6F9002801D0DE
:103F2000FFF7C5FB229D189C631B36ADBCE5B94667
:103F30005746B56872685C6010372C1901321F60F3
:103F4000B4607260072AA9DC0833B1E70E94062C2E
:103F500007D906240E940D94134C11971594FEF76F
:103F600086FF0E9CE343DB171C400D94F4E783208F
:103F7000149C6844002703780A941697FFF709F900
:103F800083222D236A441370FFF72EF9C046C046E2
:103F9000000000000000000040A00000E09F0000C2
:103FA00004A0000008A0000038A000000323009334
:103FB00022AB029323AB039324AB049301940B989D
:103FC0005246434600F0B2F9099F1590472F02D19F
:103FD0000A9FFF0718D515980D990719002900D1D8
:103FE000DAE60378302B02D0229BFF18D4E6504645
:103FF0004146784B764A03F0C3FB0028F4D10123F5
:104000001B1B2293FF18C7E6249F3F1A1897229A7A
:10401000131CD01C02DB944200DBDFE60C9C023C4C
:104020000C940CA9097825A8541E2294804601708E
:10403000002C00DAA4E06B462B2295331A70092C71
:1040400051DC6B469633302230341A705C7026AFE8
:1040500044463C1B189F1E943F19189C0E97012C38
:1040600000DC95E00E9C01340E94E343DB171C400A
:1040700000270D941997C1E6832068440D940378B6
:10408000FFF772F90023221C9B46FEF7DBFE0B981C
:104090004946321C02F008F9002801D0FFF707FB5F
:1040A000229C36ABF1E5802000062D278044169730
:1040B00055E60122002B71DD189FD2190E920E9C3D
:1040C000D243D21714400D9467240C9495E6022332
:1040D0006DE7002B3EDD002C34D10A9FFF0731D461
:1040E0000D930E9389E66B46A233201C0A211F1CF8
:1040F00003F02CFB30313970201C0A2103F0D0FA78
:104100007B1E041C0928F0DC69463034A3311C7086
:10411000994248D96A463B1C963201E01C7801332B
:10412000147001329942F9D19622F71B6A44D719CB
:104130008EE75F1CFA43D2170E97672417400D973E
:104140000C945AE601341C19E243D2170E94144021
:104150000D9452E6002C19D10A9FFF0716D40127AF
:1041600001240D970E9448E6119B119F1B6804379C
:104170009B46002B24DB53781197221CFEF760FE30
:104180006B462D22953364421A7058E70234DBE700
:104190000A9FFF0700D565E70E9C66E70222D21A48
:1041A0008AE71F1C0AE66F46963751E70B9C0C23E3
:1041B000236001235B420F93FFF78DF9229A30E7CA
:1041C0005378221C012464421197A346FEF738FE5F
:1041D0000000000000000000F0B54D4644465F4678
:1041E0005646F0B4804689460B694146096983B05A
:1041F00000208B4200DD92E05D1E03339B004846A9
:104200004146C21814310191516843440131586844
:10421000171DFEF743FC4C461434061E43D0002104
:10422000019BAB46BA46221C371CA4460D1C0E1C33
:1042300002CA0C04240C7C43090C79433419200C69
:104240004018196824040904090C4D19240C2C1B6E
:104250001D68060C0004290C000C2514091A4919C4
:1042600024040D14240C0904214302C39245DFD217
:104270005D462B1D9B00434458683E1C64465746D0
:10428000002810D1019999420BD21A68002A08D14E
:104290000A1C02E01868002803D1043B013D9A4241
:1042A000F8D341460D614046494601F0A9FD00287A
:1042B00034DB00229446019B2A1C01363D1C6746D4
:1042C00094461A6801CC1104090CCF190104090C99
:1042D000791A120C000C0F14121AD21909041714AF
:1042E000090C12040A4304C3A542EAD265462B1DF9
:1042F0009B0043445868002810D1019999420BD281
:104300001A68002A08D10A1C02E01868002803D1A4
:10431000043B013D9A42F8D341460D61301C03B085
:104320003CBC90469946A246AB46F0BDF0B5564619
:1043300044465F464D46F0B4016C9DB0041C299E76
:1043400002920393002908D0436C01229A404B60EB
:104350008A6001F0E9FA00232364039D002D35DB18
:10436000002333601E4B2A1C1A409A421BD0029E27
:10437000039F1A4B184A301C391C03F001FA00281D
:1043800036D0289E012333602A9E002E00D11CE2E5
:10439000144F3760013F381C1DB03CBC9046994615
:1043A000A246AB46F0BD104B289E02983360002811
:1043B00000D1B9E10D4F2A9E002EECD0FA78FB1CFB
:1043C000002A00D005332A9E3360E4E701233360DE
:1043D0006B005D080395C5E70000000000000000C9
:1043E0000000F07F41A000000F27000050A0000057
:1043F0001BAB00931AAB0193321C3B1C201C01F039
:1044000003FE6B000B905A0D00D1C5E1DC4D3B0360
:104410001B0B291C301C1A9E1943DA4BB046002690
:10442000D5181696C54BC44A04F046FCC44AC54B81
:1044300004F0D4F9C44AC54B03F02AFA061C281C20
:104440000F1C04F0F1FFC24AC24B04F0C7F9021C72
:104450000B1C301C391C03F01BFA061C0F1C04F04B
:10446000AFFFBD4ABD4B0790391C301C03F08EF9DD
:10447000002800D054E301260E96079E162E10D871
:10448000C14AF300D31818685968029A039B03F0D5
:1044900091F9002800D156E3079E013E07960026B9
:1044A0000E964046451B013D00D51EE30026AA4658
:1044B0000A96079E002E00DA0EE3B24411960026FB
:1044C0000F962698092800D981E10123052802DDED
:1044D0000438269000232699032901D100F07EFD9F
:1044E00000DD4EE3022900D073E1002612962798E2
:1044F000002801DC00F080FD00250E2282426D4183
:10450000061C1D4010900990002363640021172EA3
:1045100009D9012204235B00181C1430111C01323C
:10452000B042F8D96164201C01F0D6F983462064BA
:10453000002D00D15DE1079E002E00DCC5E3321C9A
:104540000F231A4090490798D2008A18051116685F
:104550005768E90600D4A9E31D408C4B02980399E3
:104560001A6A5B6A03F050FD0C900D91032291468C
:10457000002D13D0854A301C391C161C4F460123D0
:104580002B4204D032687368013704F027F96D10AC
:104590000836002DF3D1B946061C0F1C0C980D9956
:1045A000321C3B1C03F030FD0C900D910E9E002E32
:1045B00009D00C980D996A4A6A4B03F0E7F8002875
:1045C00001D000F034FD484604F02EFF0C9A0D9BFC
:1045D00004F004F9644A654B03F05AF96C4A099BEC
:1045E000061C8F18002B00D1F1E20798099917904B
:1045F0001391129A002A00D199E3139B624A013B5E
:10460000DB00D3181A685B6859485A4903F0FCFC70
:10461000321C3B1C04F050FB149015910C980D9922
:1046200004F0CEFE051C04F0FFFE021C0B1C0C98CF
:104630000D9904F041FB3035EDB2061C0F1C5B46B2
:104640001D70A846149815995D46321C3B1C013517
:1046500003F0B0F8002801D000F005FE321C3B1C2E
:104660003F48404904F028FB021C0B1C1498159984
:1046700003F0A0F8002801D000F05EFD1399012995
:1046800000DCB6E013985246584481465846AA4684
:10469000A34613920C90149C159D11E0321C3B1CF8
:1046A0002F48304904F008FB221C2B1C03F06EF845
:1046B000002801D000F03CFDCA4501D100F041FDC9
:1046C000201C291C2C4A2D4B04F088F82A4A2B4B1D
:1046D000041C0D1C301C391C04F080F80F1C061C37
:1046E00004F06EFE804604F09FFE021C0B1C301C82
:1046F000391C04F0E1FA43463033DBB20F1C0122CF
:104700005146061C0B7098469244301C391C221CE2
:104710002B1C03F03BF80028C0D00C9E5C46371CD5
:10472000179ED3460796C6E12B0300D042E6194FE9
:1047300041E6C046C046C046000000000000F83F09
:1047400061436F63A787D23FB3C8608B288AC63F97
:10475000FB799F501344D33F00000000000000008D
:10476000000000000000F03F0000000000001C40BE
:10477000000000000000E03F0000000000002440B6
:104780000000F03F01FCFFFF78A0000068A10000DE
:104790000000C0FC44A000001A981B9E8046DA4B23
:1047A00046449E4200DAC8E1D848D949801B029AA3
:1047B00085407318281CDA40104304F071FED54A76
:1047C000751E0126891816962CE6D34FE3E50020C6
:1047D000269000236364201C002101F07DF8012352
:1047E0005B428346206401260020109309931296B1
:1047F00027901B9B002B00DAB5E0079E0E2E00DDF4
:10480000B1E0C64AF300099ED318186859680490AD
:104810000591002E03DC2798002800DA0EE3029EA3
:10482000039F049A059B301C391C03F0EDFB04F038
:10483000C7FD804604F0F8FD049A059B03F0CEFF07
:10484000021C0B1C301C391C04F036FA4346303372
:104850005A461370099B5D46061C0F1C0135012B3F
:1048600048D0A64BA44A03F0B9FFA54AA54B061CA5
:104870000F1C02F085FF002800D0CDE3A946A24618
:10488000049C059D0EE0101C191C9C4B9A4A03F0D9
:10489000A5FF9B4A9B4B061C0F1C02F071FF0028D2
:1048A00000D0B7E3221C2B1C301C391C03F0ACFBDE
:1048B00004F086FD804604F0B7FD221C2B1C03F09B
:1048C0008DFF021C0B1C301C391C04F0F5F90B1C6D
:1048D0000F1C41463031021C061C48460170012164
:1048E000894448465946401A844609986045CAD1C9
:1048F0004D465446321C3B1C301C391C02F0C8FF8C
:10490000061C0F1C321C049805993B1C02F03EFF4C
:1049100000280CD104980599321C3B1C02F030FF92
:10492000002800D178E34046C00700D474E36B1E32
:104930001B78079E5F461796191C2A1C02E0023A54
:1049400011781A1C531E392901D000F001FC9F4236
:10495000F5D1179E30233B70934601363B1C312224
:1049600007961A70A7E0129E002E00D0EEE00021FC
:104970000F9E0A9F89465246002A0CDD002F0ADD51
:104980005346BA4500DD3B1C0A985146C01AC91A65
:104990000A90FF1A8A460F9A002A1ADD129B002BF2
:1049A00000D130E3002E10DD4946321C201C01F0FE
:1049B0006BF9814649460B9A201C01F0B5F80B991A
:1049C000051C201C00F0B0FF0B950F98821B00D037
:1049D0005EE3201C012101F09DF8119E8046002E0F
:1049E00005DD4146201C321C01F04EF98046269818
:1049F0000025012800DC4FE2119E0123002E00D08B
:104A000011E253441F22134000D14DE12022D21A5B
:104A1000042A01DC00F031FC1C22D31A0A9EFF1884
:104A2000F6180A969A440A9E002E05DD201C0B9962
:104A3000321C01F07FF90B905046002805DD4146FD
:104A4000201C524601F076F980460E9E002E00D0C2
:104A5000CBE12698022800DCDCE0099E002E00DD78
:104A6000D8E0099E002E00D0CEE04146201C052251
:104A7000002300F065FF804641460B9801F0C0F925
:104A8000002800DCC0E0079E594631230136012092
:104A90005F460B70079683440025201C414600F0BA
:104AA00043FF4846002806D04D4500D005E1201CB4
:104AB000494600F039FF201C0B9900F035FF002318
:104AC00058460370079B289E013333602A9E002EB0
:104AD00000D160E430605EE40A9E0798361A0A96B8
:104AE00046420F9600261196EBE46D4200210A958E
:104AF0008A46DEE4C046C0460000000000002440B4
:104B00000000000000000000EFFBFFFF0EFCFFFFB5
:104B100012040000000010FE40A0000078A0000079
:104B2000079804F081FC321C3B1C02F029FE079E12
:104B300043424341F61A07969DE4D348029B801BEB
:104B40008340181C39E600260E96AAE42698012810
:104B500000DCBDE2099E0F9A013EB24200DA5EE23D
:104B6000961B099A002A00DABAE20A9F099B0A9862
:104B70000121C0180A90201C9A4400F0CBFF814606
:104B8000F9E6269A042A00D12BE2052A00D020E675
:104B900001261296279E07980025361810960E2299
:104BA0000136B2426D41002E00DC1EE21D40099626
:104BB000AAE4484604F038FC0C9A0D9B03F00EFE64
:104BC000AA4BA94A02F064FE061CB0480F18A84A76
:104BD000A84B0C980D9904F06FF8321C3B1C0C90FC
:104BE0000D9102F0E7FD002800D09CE0321C8026E9
:104BF00036060C980D99BB1902F0C8FD002800D1AB
:104C0000F7E5002080468146279E5F46F6430796DB
:104C1000002542E7129E002E00D060E10998A246CE
:104C2000002544460B9E804606E0311C50460A2271
:104C3000002300F085FE061C301C211CFFF7CCFA77
:104C4000071C30375B465F5501354545EDDB099B59
:104C5000A0460B965446002B00DCC9E25B449A4602
:104C600000250B99201C012201F064F841460B90AD
:104C700001F0C6F8002800DC71E25646013E3378A8
:104C80005246594603E0023A1378321C013E392B52
:104C900000D08BE2B142F6D1079E31230136079650
:104CA0000B700F1C9346F8E61C23B7E60298039995
:104CB0000C900D91022189465AE4002D00D1F6E6B0
:104CC000201C291C00F030FEF1E6079E7542002DE5
:104CD00000D1D5E10F232B406D4ADB00D318029899
:104CE00003991A685B6803F079FD2D110C900D9102
:104CF000002D00D1B3E202208146664EA046012776
:104D00004C460C980D992F4204D0326873680134D8
:104D100003F064FD6D100836002DF4D1A1460C900F
:104D20000D91444642E4002080468146ABE613984C
:104D3000574A0138C300D3181490321C18685968B8
:104D40003B1C03F04BFD189019910C980D9904F041
:104D500037FB051C04F068FB021C0B1C0C980D991A
:104D600003F0AAFF139A30350F1C139B59460D70A0
:104D70005A440131061C0C9191460D1C012B1FD089
:104D8000301C391CA0463C4A3C4B03F027FD0F1C4D
:104D9000061C04F015FB041C04F046FB3034021C16
:104DA0000B1C301C391C03F087FF2C7001354D455E
:104DB000E9D1061C0F1C0C981499444640180C901D
:104DC0002F4A304B1898199902F062FD321C3B1C97
:104DD00002F0DCFC002800D160E10C9B0C9E013B42
:104DE0001B785F46191C321CACE50B98414601F05C
:104DF00007F8002800DB2CE6079E201C013E0B99DB
:104E00000A220023079600F09BFD129E0B90002EB5
:104E100055D1109E002E03DC2698022800DD28E2E2
:104E2000109E0996FAE64046036903339B0043440B
:104E3000586800F025FE20231B1AE2E5099E002E8B
:104E400000D09BE10A4A0B4B0498059903F0C6FC7D
:104E5000029A039B02F0B8FC002800D164E700220C
:104E600090469146D0E6C0460000000000001C407D
:104E7000000000000000144000000000000024407A
:104E8000000000000000E03FEEFBFFFF0000C0FC60
:104E900078A0000068A100000299002900D0ABE5CD
:104EA000039B1A0300D0A7E5D94A134200D1A3E51A
:104EB0000A9E012001360A96824401259CE5494656
:104EC000201C0A22002300F03BFD109E8146002E8C
:104ED00003DC2698022800DDCBE1109E0996002F06
:104EE00005DD4946201C3A1C00F024FF81464E4651
:104EF0000A96002D00D045E109985B46013B1B183E
:104F000002990E930A98012319405E4643460B9F6F
:104F10004D460291089380460F960899381CFFF77A
:104F20005BF9099030300A90291C381C00F068FFAA
:104F3000089983464246201C00F07EFF8146C068E7
:104F400001239A4600283DD04946201C00F0ECFC85
:104F5000269953460B4303D1029A002A00D165E1FA
:104F60005846002800DABFE026995B460B4303D180
:104F7000029A002A00D1B7E05046002800DD20E167
:104F80000AA800780E9A711C30708946964200D1AA
:104F900023E1391C0A220023201C00F0D1FC291C2B
:104FA000071C0A22201C0023454511D000F0C8FC34
:104FB0004146051C0A22201C002300F0C1FC4E467D
:104FC0008046AAE7381C494600F01AFF8246BBE734
:104FD00000F0B6FC4E46051C80469EE70026129661
:104FE000D8E501261296FFF782FA0996002262643C
:104FF0001D400021FFF797FA012601200125109698
:1050000009962790F2E7201C0B990F9A00F03CFEBE
:105010000B90DEE44D4654465F46AB464BE50F9899
:105020001199331AC9180F961191002699E5099E16
:10503000002E00D1BDE5109E002E01DCFFF7D9FB4C
:10504000079E6E4B6C4A013E0C980D99179603F023
:10505000C5FB0C900D914846013004F0E5F9021CA7
:105060000B1C0C980D9903F0B9FB654A654B02F0D7
:105070000FFC061C67480F1810991391FFF7B9FA37
:105080000299039A0C910D9202229146FFF78EFA33
:10509000201C0B9900F0F8FD0B909AE4189A199BCC
:1050A00059485A4903F008FE321C3B1C02F082FBAF
:1050B000002801D1FFF79DFB0C9900E0191C4B1E45
:1050C0001A78302AFAD0179E5F4607968B46F2E48C
:1050D000169E002E6FD050480F9E1B180A9F46E563
:1050E0000A9B9F1A002342E50B9708990A9F0F9A83
:1050F000404653460A9088469346B946002B10DD39
:105100000B99201C012200F015FE41460B9000F087
:1051100077FE002800DC9BE0099F4946313739299A
:105120007CD0377001365F46B3460A9EB146B4E480
:105130000C9E5C465546B3465F4641462A1CFFF727
:1051400001FC139E5C46B2460C9EB346FFF751FB32
:105150009346179E0A1C013207961A70ABE400288A
:1051600002D1F80700D588E5514600E0191C4B1E16
:105170001A78302AFAD05F468B468EE400218846A2
:10518000894641E57168201C00F0A6FB326949465A
:105190000232051C92000C310C30FDF7CFFC201CB4
:1051A000291C012200F0C6FD0A90A5E601333370E8
:1051B0000F1C934671E41A9936235B1A0F9E0A9FBF
:1051C000D5E40B97089B0A9F0F9842460A9298468F
:1051D0008346392F22D00137A3E7089E4046B046C8
:1051E0000F9E0B978A460A9FB3460A90814638E580
:1051F000012333E5C046C046000000000000244003
:105200000000000000001C40000000000000E03F23
:105210000000F07F0000C0FC330400000A9A711CFB
:105220003923914633700A1C594630E540460B97A6
:1052300008990A9F0A900F985B4688460293834616
:10524000392FEBD0002B00DC6BE7099F313768E783
:10525000002800D065E7F80700D462E75CE7022386
:105260009946FFF7A3F9179E5F460796AB46FFF7EF
:1052700022FC109E0996FFF7F4FB042A01D1FFF7E8
:10528000D2FB3C22D31AFFF7C9FBC046C046C0463A
:1052900038B5141E05D0201C0B4900F0F3FF002880
:1052A00002D10A4D281C38BD084D201C291C00F0D5
:1052B000E9FF0028F6D0201C054900F0E3FF434237
:1052C000584140422840EEE75CA0000058A0000092
:1052D00020A000000048704740040020014B186ADD
:1052E0007047C04640040020014824307047C04643
:1052F0004004002000207047014844307047C046F9
:105300004004002008B50A1C0349031C0868191C46
:10531000FFF7BEFF08BDC046100000200148443022
:105320007047C04640040020F0B5564644465F46EC
:105330004D46F0B40C1C0B3483B0061C162C2CD933
:1053400007239C43E30F8C422BD3002B29D1301C25
:1053500000F0BCFABE4B9C4227D8E208BD4DD300FA
:10536000EB18DF689F4200D1D4E179680323FA6823
:105370009943BB68DA6093607B1858680122024346
:105380005A60301C00F0A4FA381C083003B03CBC52
:1053900090469946A246AB46F0BD102400238C42AD
:1053A000D3D20C2333600020F0E7630A00D18BE0F6
:1053B000042B00D940E1A309383398465900A54D84
:1053C00089006918CF68B94213D07A6803239A43D9
:1053D000131B0F2B7CDC0320002B07DB7CE07A689F
:1053E0008243131B0F2B73DC002B75DAFF68B94265
:1053F000F5D1012188442B1C2F6908339F4200D12D
:1054000065E1786803229043021C011B0F2900DD2F
:105410004CE16B612B6100296DDA8F4B984200D90A
:1054200024E1C2089310012098406B68D200184311
:10543000AB189A68FB60BA6068609F60D7604246AC
:10544000911001238B40191C834259D803420CD17F
:1054500003239A43131C043349009846014204D1A4
:105460000423490098440142FAD00320844642466E
:10547000D3005B199A46181CC146C768B84207D1C9
:1054800027E1002B00DB4EE1FF68B84200D120E1AC
:105490007A6863469A43131B0F2BF2DD01203A19F9
:1054A0000443B9687C60FC681843CC60A1606A6101
:1054B0002A6108355060D560301C9560D35000F0EB
:1054C00007FA381C083061E7E1088846490076E7AA
:1054D00001235B4298448CE7BB68F968BA185068AE
:1054E000D9608B6001230343301C536000F0F0F956
:1054F000381C08304AE73A18516801230B43F3E798
:10550000AF680323786898438146844203D8031B1D
:105510000F2B00DD82E049467918504A019150492D
:10552000106892468A6823188B46013200D13DE10B
:105530004C481B181B0B1B0300930099301C00F0F8
:105540008FFE011C804601315DD0019A824200D954
:1055500001E151460098496852464318019853604A
:10556000404500D130E159468968013100D141E11F
:1055700001994046421A9B18524653600723404601
:10558000034000D1F9E0C21A08329046364AD31AD5
:10559000009A301C42441205120D9A1A111C9346AF
:1055A00000F05EFE411C00D118E14246801A5844CA
:1055B0000123184351464B6842465B444B60AA6046
:1055C0005060AF4213D048460F2800D8E1E04A4669
:1055D000786807210C3A8A43012101401143796020
:1055E0000520B918486088600F2A00D9FAE05246B1
:1055F000D26A934201D95046C3625146096B8B422D
:1056000001D952461363AF6803237A689A43131B88
:10561000944200D9A3E00F2B00DCA0E00122211C62
:1056200011433C1913437960301CAC60636000F097
:105630004FF9381C0830A9E6142B00D882E0542B0F
:1056400000D991E0230B6E3398465900B7E6C04667
:10565000F7010000BC040020FF0100005C090020ED
:10566000BC0800200F10000008100000430A042BA3
:105670006CD9142B00D99CE05B339A46580080000B
:10568000401983688146032084464B4578D0596889
:10569000604681438A4202D29B689945F7D1DA6815
:1056A0006868FA60BB60DF609760C8E601203A195D
:1056B000044308437C606A612A615060D360301CF7
:1056C0009360515000F004F9381C08305EE66868B9
:1056D000B5E60122914463464A460830134200D0A1
:1056E000CBE6524643466046184200D197E0101C74
:1056F00012680838013B8242F5D06B684900994234
:1057000000D9FDE6002900D1FAE6194200D18AE06D
:10571000C846ACE63B1C7F69023208339046BB4268
:1057200000D168E621E6BA185068012303435360AC
:10573000FA68BB68301CDA60936000F0C9F8381C66
:10574000083023E65B339846590038E68109383142
:105750008A46480093E7AF4200D054E7F9E6301C90
:1057600000F0B6F8002011E6AA225200934215D8A4
:10577000E30B77339846590021E680235B0107E766
:10578000524691100120884069681A1C08436860DD
:1057900087E7012353604746002238E7264A9342B1
:1057A0000ED8A30C7C339846590008E610330093BA
:1057B000C3E6542B22D8010B6E318A4648005EE7BF
:1057C0007E22FC219046FAE5020500D0CBE6009847
:1057D000AA68484401210143516008E700230120E1
:1057E0009B46E7E6391C0831301C01F0CFFB5146DF
:1057F0004B68FCE642465B469A60BFE6AA21490038
:105800008B4204D8C10B77318A46480037E70A49F2
:105810008B420CD8810C7C318A4648002FE76B689C
:105820008B436B606AE70422914449006DE77E2157
:10583000FC208A4623E7C04654050000F0B5CCB2F0
:1058400083073DD0531E002A1FD00278A2421DD0EC
:10585000032505E0002B18D00278013BA24215D0A9
:1058600001302842F6D1032B11D8002B0DD002783D
:10587000A2420BD0421CC31804E00132511E097829
:10588000A14203D0101C9A42F7D10020F0BDFF279F
:1058900039400F0239430B4D0F040F43AC46011C36
:1058A0000A68094E7A40951995432A1C65460430CA
:1058B0002A4203D1043B032BF1D8D6E7081CD4E7D6
:1058C000131CD0E780808080FFFEFEFE7047C0463C
:1058D0007047C0460000000070B5041CC06C0D1C71
:1058E00000280AD0AA008218106800280FD0036888
:1058F000136000220261C26070BD201C04212122BD
:1059000001F0C4FAE0640028ECD10020F4E701269D
:10591000AE40721D9200201C012101F0B7FA002850
:10592000F3D045608660E4E700B5002906D04A68F8
:105930009300C26CD3181A680A60196000BDC04693
:10594000F8B54D4644465F4656468A460969F0B466
:105950005546834698468946143500242E680134FE
:1059600037043F0C5743360C564347443B0C9E19B3
:105970003F04330C3F0C3604F619984640C5A14548
:10598000ECDC002B0DD051468968894510DA4B4676
:1059900004339B00534442465A604B460133514600
:1059A0000B6150463CBC90469946A246AB46F8BDBA
:1059B0005246516858460131FFF78EFF53461A6927
:1059C00051460232041C0C3192000C30FDF7B6F83F
:1059D000514649688B005946CA6C5146D3181A681B
:1059E000A2460A601960D2E7F8B546464F46C0B4F1
:1059F000061C181C0C1C0830092190461F1C01F0C5
:105A00004FFE012839DD012500216D000131A8423A
:105A1000FBDC301CFFF760FF089B011C4361012386
:105A200003614346092B25DD09231B19994644448C
:105A30001D1C2B78301C303B0A22FFF781FF0135FB
:105A4000011CA542F5D14C464444083C43469F42C4
:105A50000BDDFF1AE7192378301C303B0A22FFF7D1
:105A60006FFF0134011CBC42F5D1081C0CBC9046F0
:105A70009946F8BD0A340923E9E70021C9E7C04681
:105A8000031C020C00B50020002A01D11B041020C9
:105A90001A0E01D108301B021A0F01D104301B016C
:105AA0009A0F01D102309B00002B03DB01305A001A
:105AB00000D4202000BDC046036800B5590709D0B6
:105AC0000022D90704D49A0720D49B08036002223D
:105AD000101C00BD19040022002901D11B0C10224A
